:10000000803102288731A42F003096312A26803192
:100010000800F30023009A1A0E280F285B287308A3
:10002000F000F101F035F10DF035F10D35307007CC
:1000300084001830713D80388500000899007308ED
:10004000F000F101F035F10DF035F10D34307007AD
:1000500084001830713D8038850000089A009B01AB
:100060007308F000F101F035F10DF035F10D363087
:10007000700784001830713D8038850000089700B3
:100080007308F000F101F035F10DF035F10D373066
:10009000700784001830713D803885000008F20038
:1000A000F20D200012087206FD397206920023003C
:1000B0009A1601305C280030080001308031092098
:1000C0008031200017141710BB013B08A03E8600AA
:1000D000013087000108F0009331C02380310130E6
:1000E000F0000030F100963183268031013020008D
:1000F000BA003A08BB0703303B02031C8028812862
:10010000652817140130F0000030F1009631832685
:100110008031200017100330BB003B08A03E860052
:10012000013087000108F0009331C0238031013095
:10013000F0000030F100963183268031013020003C
:10014000BA003A08BB0706303B02031CA828A928BE
:100150008D2817140130F0000030F100963183260D
:100160008031200017100630BB003B08A03E8600FF
:10017000013087000108F0009331C0238031013045
:10018000F0000030F10096318326803101302000EC
:10019000BA003A08BB070A303B02031CD028D1281A
:1001A000B52817140130F0000030F1009631832695
:1001B0008031200017100A30BB003B08A03E8600AB
:1001C000013087000108F0009331C02380310130F5
:1001D000F0000030F100963183268031013020009C
:1001E000BA003A08BB070D303B02031CF828F92877
:1001F000DD2817140130F0000030F100963183261D
:100200008031200017100D30BB003B08A03E860057
:10021000013087000108F0009331C02380310130A4
:10022000F0000030F100963183268031013020004B
:10023000BA003A08BB0710303B02031C20292129D1
:10024000052917140130F0000030F10096318326A3
:100250008031200017101030BB003B08A03E860004
:10026000013087000108F0009331C0238031013054
:10027000F0000030F10096318326803101302000FB
:10028000BA003A08BB0714303B02031C482949292D
:100290002D2917140130F0000030F100963183262B
:1002A0008031200017101430BB003B08A03E8600B0
:1002B000013087000108F0009331C0238031013004
:1002C000F0000030F10096318326803101302000AB
:1002D000BA003A08BB0716303B02031C702971298B
:1002E000552917140130F0000030F10096318326B3
:1002F0008031200017101630BB003B08A03E86005E
:10030000013087000108F0009331C0238031203094
:1003100020003B06031D8D298E29E5290130F000C0
:100320000030F1009631832680319331B223803141
:100330002000E30008306306031D9F29A029E5295A
:10034000E830F0000330F100953142258031200083
:10035000A001A101183097319F2780310130F000B2
:100360000030F10095314225803140302000A0005E
:100370000C30A100183097319F278031E830F00011
:100380000330F1009531422580312000A001A10108
:10039000183097319F2780310130F0000030F10094
:1003A00095314225803140302000A000A101183055
:1003B00097319F2780310130F0000030F1009531F6
:1003C000422580318A31042280310130F000003032
:1003D000F10096318326803101302000BA003A08BE
:1003E000BB0728303B02031CF629F7297D29171487
:1003F0000130F0000030F10096318326803120007A
:1004000017102830BB003B08A03E86000130870053
:100410000108F0009331C02380310130F00000303A
:10042000F10096318326803101302000BA003A086D
:10043000BB072A303B02031C1E2A1F2A032A17145B
:100440000130F0000030F100963183268031200029
:1004500017102A30BB003B08A03E86000130870001
:100460000108F0009331C02380310130F0000030EA
:10047000F10096318326803101302000BA003A081D
:10048000BB072D303B02031C462A472A2B2A171490
:100490000130F0000030F1009631832680312000D9
:1004A00017102D30BB003B08A03E860001308700AE
:1004B0000108F0009331C02380310130F00000309A
:1004C000F10096318326803101302000BA003A08CD
:1004D000BB0730303B02031C6E2A6F2A532A1714C5
:1004E0000130F0000030F100963183268031200089
:1004F00017103030BB003B08A03E8600013087005B
:100500000108F0009331C02380310130F000003049
:10051000F10096318326803101302000BA003A087C
:10052000BB0734303B02031C962A972A7B2A1714F8
:100530000130F0000030F100963183268031200038
:1005400017103430BB003B08A03E86000130870006
:100550000108F0009331C02380310130F0000030F9
:10056000F10096318326803101302000BA003A082C
:10057000BB0737303B02031CBE2ABF2AA32A17142D
:100580000130F0000030F1009631832680312000E8
:1005900017103730BB003B08A03E860001308700B3
:1005A0000108F0009331C02380310130F0000030A9
:1005B000F10096318326803101302000BA003A08DC
:1005C000BB073A303B02031CE62AE72ACB2A171462
:1005D0000130F0000030F100963183268031200098
:1005E00017103A30BB003B08A03E86000130870060
:1005F0000108F0009331C02380310130F000003059
:10060000F10096318326803101302000BA003A088B
:10061000BB073E303B02031C0E2B0F2BF32A171493
:1006200008002000C201C10101308031092083315E
:10063000200017146430F0000030F100963183265A
:10064000833120001710C7014708123E860087013A
:100650002330873D0108F0009331C02383310130FE
:10066000F0000030F1009631832683310130200004
:10067000BA003A08C70704304702031C402B412B3D
:10068000242B17140130F0000030F1009531422581
:100690008331200017100430C7004708123E86003F
:1006A00087012330873D0108F0009331C023833157
:1006B0000130F0000030F1009631832683310130A3
:1006C0002000BA003A08C7071E304702031C692BF6
:1006D0006A2B4D2B1714F430F0000130F1009631E5
:1006E00083268331200017101E30C7004708123EB2
:1006F000860087012330873D0108F0009331C02335
:1007000083310130F0000030F100963183268331CF
:1007100001302000BA003A08C70721304702031C05
:10072000922B932B762B1714DC30F0000530F10060
:10073000953142258331200017102130C70047082A
:10074000123E860087012330873D0108F000933177
:10075000C02383310130F0000030F1009631832650
:10076000833101302000BA003A08C707333047020E
:10077000031CBB2BBC2B9F2BC301C4010B304402B9
:10078000B83003194302031CC62BC72BC82BDF2B21
:1007900017140130F0000030F100963183268331C8
:1007A000200017100130F0000030F1009631832650
:1007B000833101302000C3070030C43DBE2B3330ED
:1007C000C7004708123E860087012330873D010895
:1007D000F0009331C02383310130F0000030F1008C
:1007E000963183268331363020004706031DF92BCE
:1007F000FA2B062C0130F0000030F10096318326F0
:1008000083319331B22383312000C2003730470255
:10081000031C0B2C0C2C312C3B3047020318112CE1
:10082000122C312C0130F0000030F100963183267B
:1008300083319331B22383312000BA004708BB00D3
:10084000BC013230BD002330BE003B083D07BF0075
:100850003C083E3DC0003F088600400887003A083B
:1008600081000130BA003A08C70753304702031C21
:100870003A2C3B2CE12B1714F430F0000130F1003E
:10088000963183268331200017105330C700470864
:10089000123E860087012330873D0108F000933126
:1008A000C02383310130F0000030F10096318326FF
:1008B000833101302000BA003A08C7076730470289
:1008C000031C632C642C472C42080319682C692CE8
:1008D0006A2C742C15304102031C6F2C702C182BC1
:1008E0008A3104228331182BC501C601013046022A
:1008F000183003194502031C7E2C7F2C802C972C6A
:1009000017140130F0000030F10096318326833156
:10091000200017100130F0000030F10096318326DE
:10092000833101302000C5070030C63D762C67308A
:10093000C7004708123E860087012330873D010823
:10094000F0009331C02383310130F0000030F1001A
:1009500096318326833101302000BA003A08C70758
:1009600069304702031CB52CB62C992C171464303F
:10097000F0000030F10096318326833120001710FB
:100980006930C7004708123E860087012330873D43
:100990000108F0009331C02383310130F0000030B2
:1009A000F10096318326833101302000BA003A08E5
:1009B000C7078B304702031CDE2CDF2CC22C171418
:1009C0000130F0000030F1009531422583312000E4
:1009D00017108B30C7004708123E8600870123306E
:1009E000873D0108F0009331C02383310130F000CE
:1009F0000030F10096318326833101302000BA00A7
:100A00003A08C7079D304702031C072D082DEB2C21
:100A10001714F430F0000130F10096318326833151
:100A2000200017109D30C7004708123E860087013E
:100A30002330873D0108F0009331C023833101301A
:100A4000F0000030F1009631832683310130200020
:100A5000BA003A08C7079F304702031C302D312DDA
:100A6000142D1714F430F0000130F1009631832674
:100A70008331200017109F30C7004708123E8600C0
:100A800087012330873D0108F0009331C023833173
:100A90000130F0000030F1009631832683310130BF
:100AA0002000BA003A08C707A2304702031C592D9C
:100AB0005A2D3D2D1714F430F0000130F10096311D
:100AC0008326833120001710A230C7004708123E4A
:100AD000860087012330873D0108F0009331C02351
:100AE00083310130F0000030F100963183268331EC
:100AF00001302000BA003A08C707A5304702031C9E
:100B0000822D832D662D1714F430F0000130F10092
:100B100096318326833120001710A530C70047087F
:100B2000123E860087012330873D0108F000933193
:100B3000C02383310130F0000030F100963183266C
:100B4000833101302000BA003A08C707A9304702B4
:100B5000031CAB2DAC2D8F2D1714F430F000013099
:100B6000F10096318326833120001710A930C70089
:100B70004708123E860087012330873D0108F000B8
:100B80009331C02383310130F0000030F100963101
:100B90008326833101302000BA003A08C707AC3001
:100BA0004702031CD42DD52DB82D1714F430F000B6
:100BB0000130F10096318326833120001710AC30CC
:100BC000C7004708123E860087012330873D010891
:100BD000F0009331C02383310130F0000030F10088
:100BE00096318326833101302000BA003A08C707C6
:100BF000AF304702031CFD2DFE2DE12D1714F430FC
:100C0000F0000130F1009631832683312000171067
:100C1000AF30C7004708123E860087012330873D6A
:100C20000108F0009331C02383310130F00000301F
:100C3000F10096318326833101302000BA003A0852
:100C4000C707B3304702031C262E272E0A2E17147F
:100C5000F430F0000130F10096318326833120001A
:100C60001710B330C7004708123E860087012330B3
:100C7000873D0108F0009331C02383310130F0003B
:100C80000030F10096318326833101302000BA0014
:100C90003A08C707B5304702031C4F2E502E332E9B
:100CA0001714F430F0000130F100963183268331BF
:100CB00020001710B530C7004708123E8600870194
:100CC0002330873D0108F0009331C0238331013088
:100CD000F0000030F100963183268331013020008E
:100CE000BA003A08C707C7304702031C782E792E8E
:100CF0005C2E1714F430F0000130F1009631832699
:100D0000833120001710C730C7004708123E860005
:100D100087012330873D0108F0009331C0238331E0
:100D20000130F0000030F10096318326833101302C
:100D30002000BA003A08C707C9304702031CA12E99
:100D4000A22E852E1714F430F0000130F1009631F8
:100D50008326833120001710C930C7004708123E90
:100D6000860087012330873D0108F0009331C023BE
:100D700083310130F0000030F10096318326833159
:100D800001302000BA003A08C707CC304702031CE4
:100D9000CA2ECB2EAE2E1714F430F0000130F10025
:100DA00096318326833120001710CC30C7004708C6
:100DB000123E860087012330873D0108F000933101
:100DC000C02383310130F0000030F10096318326DA
:100DD000833101302000BA003A08C707CF304702FC
:100DE000031CF32EF42ED72E1714F430F00001302C
:100DF000F10096318326833120001710CF30C700D1
:100E00004708123E860087012330873D0108F00025
:100E10009331C02383310130F0000030F10096316E
:100E20008326833101302000BA003A08C707D33047
:100E30004702031C1C2F1D2F002F1714F430F00045
:100E40000130F10096318326833120001710D33012
:100E5000C7004708123E860087012330873D0108FE
:100E6000F0009331C02383310130F0000030F100F5
:100E700096318326833101302000BA003A08C70733
:100E8000D6304702031C452F462F292F1714F43064
:100E9000F0000130F10096318326833120001710D5
:100EA000D630C7004708123E860087012330873DB1
:100EB0000108F0009331C02383310130F00000308D
:100EC000F10096318326833101302000BA003A08C0
:100ED000C707D9304702031C6E2F6F2F522F1714EC
:100EE000F430F0000130F100963183268331200088
:100EF0001710D930C7004708123E860087012330FB
:100F0000873D0108F0009331C02383310130F000A8
:100F10000030F10096318326833101302000BA0081
:100F20003A08C707DE304702031C972F982F7B2F04
:100F300017149331B52383316430F0000030F10091
:100F400096318326833108002A3084008E30850054
:100F50001A308600223087000130FF00D6309431ED
:100F6000742487317D308400953085004A308600B6
:100F7000003087000030FF0017309431742487312F
:100F80007130840097308500A030860000308700E3
:100F90000030FF002E30943174248731D730840024
:100FA0008830850020308600013087000030FF0047
:100FB000383094317424873183308400893085003F
:100FC000A0308600013087000030FF003E309431B1
:100FD00074248731E101E201E301E401E501E60166
:100FE000E701E801CE308400003085001D30FE00AE
:100FF0000030FF0094316824873120008831A02818
:10100000F000700821009E0093171314080015309B
:101010002000A7000130A800F430A9000130AA0088
:101020008C317B2488315D302000A7000130A8007E
:10103000F430A9000130AA008C317B2488319F3024
:101040002000A7000130A800F430A9000130AA0058
:101050008C317B2488312A302000A7000230A80080
:10106000F430A9000130AA008C317B2488310800BB
:101070002000B501B6013208310430042F04031DED
:1010800042284328492833083404031D48284928A6
:101090004E28FF30AF00FF30B00069281830A300A1
:1010A0000030A4003408A6003308A5008A314F227E
:1010B000883120002308B5042408B6043508360416
:1010C000031963286428652849281830AF000030C8
:1010D000B0000800F000F101F10A21006A1971283E
:1010E00072289E287008E400EA106A156A100E3013
:1010F000E800F430E2000130E300EA159330CE005E
:101100001330CF00DA019330D0001330D100DB016F
:101110009330D2001330D300DC019330D40013306D
:10112000D500DD019530D6001330D700DE019331B4
:101130009723883194319B248831F101710808008C
:101140009531542588310030F000F030F1009431B1
:101150005C2488312000C800C9014808E90049081A
:10116000EA0000306A020A3003196902031CB92838
:10117000BA28BE280430E9000030EA006908893145
:10118000492188318B31AF2388318C31102488314B
:101190008D31972588319531F52588318B314F2355
:1011A000883180315D208831C528803102280034A3
:1011B0000034513400340034013401340834023432
:1011C0000034A03400343D340034473432347B34AE
:1011D000013437340434393404343C345F3400345B
:1011E00000345134C03452340034003400340034FC
:1011F0000034003400344134EF344234EF340034EE
:10120000013410340E3411340E348134F134F93495
:10121000003408341034183420342834303420009A
:101220009601970101309800CB309100C4309200B4
:10123000D83093003E00CE01B930C3005E30B80014
:10124000E501C401B901CF01BA01C501D001FF30E8
:10125000BB00FF30C600FF30D100FF30BC00FF30C4
:10126000C700FF30D2000830E8000A303D00C90056
:101270001330C50016303E0099001430A30015301D
:10128000A40017309B0014303D00C6000930C80090
:1012900008002000A60026084A3E860087010108B3
:1012A0002100A300200026084A3E8600870101088D
:1012B0002100A5002000A7012708A03E8600870185
:1012C0000108A4002708A13E860087010108A500A7
:1012D0002408A0002508A100183097319F278931E4
:1012E0000130F0000030F1009531422589310230A3
:1012F0002000A3002308A70710302702031C812920
:1013000082295C290800D63401343334D6340134C0
:1013100032349034023432340134D634013433342C
:10132000D634013432349034023432340134DD3472
:101330000034A034003432340134FF34FF34FF343D
:10134000FF34FF34FF34FF34FF34FF34FF34003404
:10135000FF34FF34FF3480340034D6340134313468
:10136000D634013430349034023430340134D6343D
:1013700001343134D63401343034903402343034D2
:10138000013421006508860087019331AC2389313F
:1013900081000130F80078082100E5070130E602FD
:1013A0000030E73B660867040319D729D829DD29EF
:1013B0009331BC2389310530032AEA15E72993319B
:1013C000F0238931032A9331EB238931032A5A0808
:1013D000F7004F088A004E080A008931F800F90129
:1013E0007908003A0319F529E3297808013A031925
:1013F000E329033A0319DF29013A0319DF29073AE0
:101400000319E329E32908000030F000F030F1006F
:1014100020006908F200963146268A319731CF279D
:101420008A310030973144278A319030F000013002
:10143000F100953142258A310330973144278A31B2
:101440009030F0000130F100953142258A310030B2
:10145000973144278A319030F0000130F100953106
:1014600042258A310330973144278A319030F00089
:101470000130F100953142258A31003097314427FF
:101480008A319030F0000130F100953142258A31E7
:101490000330973144278A312000161108002000BC
:1014A000A901AA0125082604031D572A582A5D2AE6
:1014B000FF30A300FF30A4009B2AAD01AE01200045
:1014C0002D08250786002E08263D87000108AB0061
:1014D0002D082507A7002E08263DA800270886000E
:1014E0002808870041310108AC002B08A0002C0817
:1014F000A100183097319F278A310130F000003069
:10150000F100953142258A3102302000AD070030CC
:10151000AE3D2E08803AA70080302702031D922A94
:10152000F8302D02031C952A962A5F2A20002A08EB
:10153000A4002908A30008009331FA238A31003A55
:101540000319A32AA42AD22AB12A9331D2238A3199
:10155000EE2A9331D7238A31EE2A9331E1238A315F
:10156000EE2A21005D08F7000630CE3E8600870196
:10157000413F8A00403F0A008A31F800F9017908AA
:10158000003A0319C42AAD2A7808013A0319AD2A92
:10159000033A0319A52A013A0319A92A073A03199C
:1015A000AD2AAD2A21006A101730CE3E8600870191
:1015B000403F84008501810A00089331C8238A31A5
:1015C00001302100E6020030E73B66086704031D96
:1015D000EA2AEB2AED2A0630EE2A03300800200022
:1015E000BB009531DC258A3120003B03031DF92A1D
:1015F000FA2A242BBE013E08203E860001308700D7
:101600000108BC003E08213E860001308700010829
:10161000BD003C08A0003D08A100183097319F276D
:101620008A310130F0000030F100953142258A31D5
:1016300002302000BA003A08BE0704303E02031C04
:10164000222B232BFB2A4E2B0430BE003E08203ECB
:101650008600013087000108BC003E08213E86005C
:10166000013087000108BD003C08A0003D08A10032
:10167000183097319F278A310130F0000030F10097
:10168000953142258A3102302000BA003A08BE075F
:101690001E303E02031C4D2B4E2B262B0800013022
:1016A000883100208B31943113248B31003A031997
:1016B0005A2B5B2B532B943106248B31710820005D
:1016C000C0007008BF0002304002FF3003193F0223
:1016D00003186B2B6C2B982B0C186F2B702B8D2BEE
:1016E0006508031D742B752B8D2B03306006031DBD
:1016F0007A2B7B2B832B01308A31EF228B31023006
:101700002000E0008A2B00308A31EF228B31033039
:101710002000E000E501E50AAE2B0C1C902B912B7C
:10172000AE2B6503031D952B962BAE2BE501AE2B3F
:1017300003304002813003193F02031CA02BA12B70
:10174000AE2B03306006031DA62BA72BAE2B01305A
:101750008A31EF228B3102302000E00008002000A7
:101760001615883107208B316430F0000030F1000D
:10177000953142258B31200096161716023097318D
:1017800044278B31C830F0000030F10095314225FC
:101790008B310330973144278B31C830F000003053
:1017A000F100953142258B310230973144278B313E
:1017B000C830F0000030F100953142258B31033004
:1017C000973144278B31C830F0000030F10095315B
:1017D00042258B310230973144278B3196310F26C9
:1017E0008B316430F0000030F100953142258B31AF
:1017F000953167258B316430F0000030F100953170
:1018000042258B319331C4238B312C30F0000130D1
:10181000F100953142258B31833111238B31080042
:101820000330883100208C31943113248C31003AFC
:1018300003191B2C1C2C142C943106248C31710898
:101840002000BB007008BA0003303B0201300319CE
:101850003A0203182C2C2D2C4E2C00306A02093031
:1018600003196902031C352C362C3E2C0930E90083
:101870000030EA009531DC258C317A2C6608031D96
:10188000422C432C7A2C0130E9070030EA3DE60176
:10189000E60A6908893149218C317A2C03303B02F0
:1018A000013003193A02031C562C572C792C0330B3
:1018B0003B02513003193A0203185F2C602C792C3B
:1018C00069086A04031D652C662C692CE901EA018C
:1018D0003A2C6608031D6D2C6E2C7A2C0130E9021F
:1018E0000030EA3BE601E60A6908893149218C317A
:1018F0007A2CE601080020002708F6002808F700E7
:10190000F801F9010030FD000130FC008630FB00D9
:10191000A030FA008D3107258C3179082000B900FC
:101920007808B8007708B7007608B6003635F600B4
:10193000370DF700380DF800390DF9000A30F200C4
:101940000030F3002A08F1002908F00096316426DF
:101950008C3170082000AB007108AC00AD01AE0105
:101960002E08FD002D08FC002C08FB002B08FA00B7
:101970008D3107258C3179082000B3007808B2003A
:101980007708B1007608B0001616B401B501DE2C58
:1019900018153708F1003608F000963183268C318F
:1019A000200018113708F1003608F0009631832620
:1019B0008C3101302000B4070030B53D3408AB0055
:1019C0003508AC000030AC1BFF30AD00AE002E0877
:1019D000803AAF003308803A2F02031DF92C3208F9
:1019E0002D02031DF92C31082C02031DF92C30089F
:1019F0002B02031CFC2CFD2CC82C161218111430C1
:101A0000F0000030F100953142258C3108002000B3
:101A1000A201F91F0C2D0D2D1A2DF609F709F80951
:101A2000F909F60A0319F70A0319F80A0319F90A5A
:101A3000A201A20AFD1F1D2D1E2D2D2DFA09FB0945
:101A4000FC09FD09FA0A0319FB0A0319FC0A031928
:101A5000FD0A0130A0002008A2060030A6000030D8
:101A6000A5000030A4000030A300790878047704B2
:101A7000760403193C2D3D2D7E2DA101A10A4B2D8D
:101A80000130F635F70DF80DF90D890B412D0130B8
:101A9000A0002008A107F91F4E2D4F2D402D013029
:101AA000A335A40DA50DA60D890B502D79087D0237
:101AB000031D642D78087C02031D642D77087B02CA
:101AC000031D642D76087A02031C672D682D712D85
:101AD0007608FA027708FB3B7808FC3B7908FD3B67
:101AE00023140130F936F80CF70CF60C890B722D23
:101AF0000130A102031D7D2D7E2D4F2D22080319DB
:101B0000822D832D8E2DA309A409A509A609A30A58
:101B10000319A40A0319A50A0319A60A2608F9003D
:101B20002508F8002408F7002308F6000800200024
:101B30008E1B9B2D9C2DAA2D8D1A9F2DA02DA52D82
:101B40000130973144278D31292E003097314427B9
:101B50008D31292E0630883100208D3194311324A7
:101B60008D31003A0319B52DB62DAE2D94310624D2
:101B70008D3171082000BF007008BE003F08BB0017
:101B80003E08BA00BB36BA0CBB36BA0CBB36BA0C30
:101B90003A08BE003B08BF0064080319D02DD12DC0
:101BA000DE2D3E083C07BA003F083D3DBB00BB367A
:101BB000BA0C3A08BC003B08BD00DE2D0130BA006B
:101BC0003A08E407C9306402031CE72DE82D292EEA
:101BD00000303F02473003193E02031CF02DF12D67
:101BE000F62D0130973144278D31272E00303F02EA
:101BF000473003193E020318FE2DFF2D0D2E003035
:101C00003F02433003193E02031C072E082E0D2EFF
:101C10000230973144278D31272E00303F02433068
:101C200003193E020318152E162E242E00303F02F3
:101C3000413003193E02031C1E2E1F2E242E00309D
:101C4000973144278D31272E8A3104228D3120008F
:101C5000E401080000340034013401340B348134D1
:101C60000C3482340D3400340E3480341234813418
:101C700013348234143480341B34003437340E343B
:101C8000383402343C3408343D34013400340134F7
:101C900001340834023400340A3400344734313417
:101CA0007B340134143465340C3408340D34083476
:101CB0003434043436340434373404343934083496
:101CC0000034083418347F341934FF341A340034A3
:101CD0001C3480341D3401341E34003420347F34ED
:101CE0002134FC34223400340034093420347F346D
:101CF0002134FF3422340034243480342534013438
:101D00002634003428347F342934FC342A34003417
:101D1000003401343334443410340034113400348A
:101D2000093430343B349D343C349D340034003429
:101D30003F34D63440340034413481344234813429
:101D40005134C034523400340B3481340C34823476
:101D500000340034013401340B3481340C348234C7
:101D60000D3400340E348034123481341334823410
:101D7000143480341B34003437340E343834023495
:101D80003C3408343D340134003401340134083427
:101D9000023400340A340034473431347B340134A3
:101DA000143465340C3408340D34083434340434B9
:101DB00036340434373404343934083400340834C5
:101DC00018347F341934FF341A3400341C3480340E
:101DD0001D3401341E34003420347F342134FC346B
:101DE000223400340034093420347F342134FF3469
:101DF0002234003424348034253401342634003431
:101E000028347F342934FC342A340034003401343B
:101E10003334443410340E3411340E340934303435
:101E20003B349D343C349D34003400343F34D6344C
:101E3000403400344134E5344234E5345134C03464
:101E400052340034DF3402340034B0349034183467
:101E50000034B03400340034003400340034003432
:101E600000340034003400340034003400340034D2
:101E7000003400341A3400345234B734013400349E
:101E8000D93401343F34C8341034803464340034DD
:101E900000340034003400340034003400340034A2
:101EA00000340034003400348034A03410348034E2
:101EB000643400340034003400340034003400341E
:101EC00000340034003400340034003480340034F2
:101ED0000034203400345234B734013400344034F8
:101EE000003404343C34A0341C34C934123400347B
:101EF00064340034003400340034003400340034DE
:101F00000034003400340034003400340034003431
:101F10000034CA340034A034003400346434203433
:101F2000D63445345734003400340034003400349F
:101F300000340034003400340034003400342234DF
:101F400000345234B73401340034403400340634A1
:101F50003C34A0341C3401340034CB34103400340D
:101F60000134FF34FF34FF34FF34FF34FF34FF34D7
:101F7000FF34FF34FF340034FF34FF34FF34803447
:101F80000034D63401343134D63401343034903412
:101F9000023430340134D63401343134D63401348F
:101FA00030349034023430340134DD340034A03421
:101FB000003432340134FF34FF34FF34FF34FF3453
:101FC000FF34FF34FF34FF34FF340034FF34FF3478
:101FD000FF3480340034D63401343134D634013403
:101FE00030349034023430340134D6340134313456
:101FF000D634013430349034023430340134003477
:1027260001300800053008002E000F1008002300B5
:10273600901208002E00191008002300111408003A
:102746002300911408002300111508002300911599
:10275600080023000C0808002E000F1408002300B0
:102766001608080023009A12080023009116111675
:102776000800230091121116080070082300960025
:1027860008009531312593310800F00070082300C8
:102796008C0008002100EA10E9010E300800933190
:1027A600A3239331013008009331A32393310230E0
:1027B60008009331A3239331013008009331A623F7
:1027C6009331003008009331BC2393310530080063
:1027D6009331B82393310A3008009331B8239331EB
:1027E600093008002100EA10E9010E300800230034
:1027F600110E890C890C013908002E000F1C042CBF
:10280600052C002C080021000D08F1000C08F00032
:10281600080021006A109331A9239431043008007E
:1028260003102100131C03140030093D0800210089
:102836006A1464359331C8239431033008002F009D
:1028460096019701980199019A019B0108002100C0
:102856006A140314640D9331C823943105300800BB
:10286600623031008D008F01910102309300920198
:102876000800803023008F00083090009101183046
:102886008D00901208007508F1007408F0007608B3
:10289600F20000309631A326943108007508F10045
:1028A6007408F0007608F20002309631A3269431BF
:1028B6000800710830009B0070089A001E171E144D
:1028C6000000000030001C0808006400800101318F
:1028D6000130FE020030FF3B7F087E04031D692C99
:1028E6000034FE0012001E000130FE020030FF3BE5
:1028F6007F087E04031D752C0034872C9431002438
:1029060094319631EF2694312100EA188B2C8C2CC9
:10291600812C0800F2002100EA1D922C932C9A2C9F
:102926007208E5007108E7007008E600EA11080081
:102936002300901A9F2CA02CA82C80308F000830E2
:102946009000910118308D00901608000230F000BA
:102956000030F100770894318D2494310030F40072
:10296600F500F60194314624943104300800013014
:10297600F0000030F100770894318D249431003056
:10298600F400F500F6019431462494310430080031
:102996000130F0000030F100770894318D24943135
:1029A6000030F400F500F6019431462494310230EB
:1029B60008000230F0000030F100770894318D24D1
:1029C60094310030F400F500F60194314624943138
:1029D600023008000230F0000030F1007708943130
:1029E6008D2494310030F400F500F601943146242C
:1029F6009431043008000130F0000030F10077080F
:102A060094318D2494310030F400F500F6019431B0
:102A160046249431023008000230F0000030F10004
:102A2600770894318D2495310030F400F500F601D5
:102A3600943146249531023008000130F000003010
:102A4600F100770894318D2495310030F400F500BB
:102A5600F6019431462495310430080000302000F8
:102A6600B2000030B1000030B0000030AF001A30C4
:102A7600B3002230B4008831382095310800472D44
:102A86005330890B442D00000130F0020030F13B39
:102A9600700A031D522D710A031D522D532D432D0D
:102AA600080094312224953194313C249531953196
:102AB6006725953189310F2195319431332495312C
:102AC60096310F269531080009303D00C8000A30BE
:102AD600C90016303E00990017309B004030230095
:102AE600990001309A0001309700200092102300CF
:102AF6009A1208008134F134F93400340834103461
:102B060018342034283430340034003440340C3443
:102B1600003400344034003400340034403400348F
:102B26000234F001F00A2100EA189A2D9B2DAA2DF5
:102B36006A11FF30E40093319723953193319D2339
:102B4600953193319A23953121006908F000700878
:102B56000800770886008701403FF000413FF100FA
:102B66007708023E86008701010894318D2495314D
:102B76000030F400F500F601943146249531023018
:102B86000800770886008701403FF000413FF100CA
:102B96007708023E86008701010894318D2495311D
:102BA6000030F400F500F6019431462495310230E8
:102BB6000800A5302000A7000330A800F430A900C3
:102BC6000130AA008C317B249531A5302000A70066
:102BD6000330A800F430A9000130AA008C317B2410
:102BE6009531080020008C1FF92DFA2D062E003095
:102BF6006202653003196102031C022E032E0A2E9F
:102C06008A31042295312000E101E2010E2E0130C5
:102C1600E1070030E23D080022008E018F0190019D
:102C26009101920193018D0121009E019B019C015E
:102C36000130940002309500960197019A0199019E
:102C46000330980084309300FF309D000800FC009C
:102C5600FD01FD0A2100EA18312E322E442EEA1417
:102C6600FD017C080319382E392E3C2EE801E80AAE
:102C76003E2E0230E8009331A02396319431802411
:102C860096317D08080000308B1B0130F300710877
:102C960030009B0070089A0072089C001E171E15D3
:102CA6008B1355309F00AA309F009E149E185C2EF1
:102CB6005D2E592E1E11730C031C8B1303188B17D4
:102CC6000800F401F501701C692E6A2E6E2E72083A
:102CD600F4077308F53D0130F235F30D890B6F2EBD
:102CE6000130F136F00C890B742E70087104031D47
:102CF6007D2E7E2E662E7508F1007408F000080001
:102D06008C2E00320032003200322030F0020030C9
:102D1600F13B003071022030031970020318942E23
:102D2600952E842E962E0130F0020030F13B700A6B
:102D3600031DA12E710A031DA12EA22E962E080098
:102D4600F300700871040319A92EAA2EB92E733543
:102D5600CE3E860087017008C03F7108C13F7308E8
:102D6600DA3E8600870172088100C62E7335CE3E94
:102D7600860087019330C03F1330C13F7308DA3EA7
:102D8600860087018101080021006A100230E900EF
:102D9600D42E9331DC239631EE2E9331E1239631F6
:102DA600EE2E5C08F7000430CE3E86008701413FD8
:102DB6008A00403F0A009631F800F9017908003A86
:102DC6000319E62ED02E7808023A0319CC2E013AC2
:102DD6000319CC2ED02E080093319723963121006B
:102DE6006A1CF62EF72E022F9331FA239631003AFB
:102DF6000319FE2EFF2E022F0F302100E8002100BE
:102E06006808FA00FB01FA35FB0D00307A078400EA
:102E160018307B3D80388500013F8A00003F0A005C
:102E260097312100E80008002100EA15272F933189
:102E3600DC239731432F9331AF2397310330432F50
:102E46009331E1239731432F5A08F7004F088A0040
:102E56004E080A009731F800F9017908003A03197B
:102E6600352F232F7808013A0319232F033A031924
:102E76001A2F013A03191A2F073A03191E2F232F67
:102E86000800F2005A2F2000181498109812702F7C
:102E96002000181098149812702F200018109810FF
:102EA6009816702F2000181098109812702F72081C
:102EB600F000F1017108003A0319622F552F7008CE
:102EC600003A0319462F013A03194B2F033A031907
:102ED600502F013A0319552F552F0800003400349E
:102EE60041340834423408340034013410340E348A
:102EF60011340E3400340034403400348134F1345B
:102F0600F93400340834103418342034283430347A
:102F16008134F134F9340034083410341834203450
:102F2600283430348134F134F93400340834103420
:102F360018342034283430342000A200200022081F
:102F460088316A209731003A0319AA2FAB2FA12F97
:102F56002030F4001530F5002130F6009431462477
:102F660097310130F0000030F100203094318D248B
:102F760097310030F400F500F60194315124973171
:102F8600803104209731953194259731013A031900
:102F9600CD2FCE2FC62F08002A302000A7000230E2
:102FA600A800F430A9000130AA008C317B249731A7
:102FB6009F302000A7000130A800F430A90001309E
:102FC600AA008C317B2497315D302000A7000130A8
:102FD600A800F430A9000130AA008C317B24973177
:102FE60015302000A7000130A800F430A9000130F8
:102FF600AA008C317B2497310800CD3413342A344F
:1030060014341A3414349C340A34C13409340C345C
:10301600143417341734D2341334D7341334DC341D
:103026001334E1341334E6341334EB341334F0340C
:103036001334F5341334C7341634B534133400342A
:1030460000340034003400340034003400340034DA
:103056000034C0341334B234133400340034003432
:1030660000340A344034013400340134403401342D
:02307600003424
:020000040001F9
:08000000FF3FFF3FFF3FFF3F00
:0A000E00EC3FFF3F9F3FFF3FFF3F25
:00000001FF
